{
  "_format": "hh-sol-artifact-1",
  "contractName": "Assessment",
  "sourceName": "contracts/Assessment.sol",
  "abi": [
    {
      "inputs": [
        {
          "internalType": "uint256",
          "name": "initBalance",
          "type": "uint256"
        }
      ],
      "stateMutability": "payable",
      "type": "constructor"
    },
    {
      "inputs": [
        {
          "internalType": "uint256",
          "name": "balance",
          "type": "uint256"
        },
        {
          "internalType": "uint256",
          "name": "withdrawAmount",
          "type": "uint256"
        }
      ],
      "name": "InsufficientBalance",
      "type": "error"
    },
    {
      "anonymous": false,
      "inputs": [
        {
          "indexed": false,
          "internalType": "uint256",
          "name": "amount",
          "type": "uint256"
        }
      ],
      "name": "Deposit",
      "type": "event"
    },
    {
      "anonymous": false,
      "inputs": [
        {
          "indexed": false,
          "internalType": "address",
          "name": "user",
          "type": "address"
        },
        {
          "indexed": false,
          "internalType": "string",
          "name": "name",
          "type": "string"
        },
        {
          "indexed": false,
          "internalType": "uint256",
          "name": "duration",
          "type": "uint256"
        },
        {
          "indexed": false,
          "internalType": "uint256",
          "name": "cost",
          "type": "uint256"
        }
      ],
      "name": "SubscriptionAdded",
      "type": "event"
    },
    {
      "anonymous": false,
      "inputs": [
        {
          "indexed": false,
          "internalType": "address",
          "name": "user",
          "type": "address"
        },
        {
          "indexed": false,
          "internalType": "string",
          "name": "name",
          "type": "string"
        },
        {
          "indexed": false,
          "internalType": "uint256",
          "name": "refund",
          "type": "uint256"
        }
      ],
      "name": "SubscriptionCanceled",
      "type": "event"
    },
    {
      "anonymous": false,
      "inputs": [
        {
          "indexed": false,
          "internalType": "uint256",
          "name": "amount",
          "type": "uint256"
        }
      ],
      "name": "Withdraw",
      "type": "event"
    },
    {
      "anonymous": false,
      "inputs": [
        {
          "indexed": false,
          "internalType": "uint256",
          "name": "multiplier",
          "type": "uint256"
        },
        {
          "indexed": false,
          "internalType": "uint256",
          "name": "newBalance",
          "type": "uint256"
        }
      ],
      "name": "balanceMultiplied",
      "type": "event"
    },
    {
      "inputs": [
        {
          "internalType": "string",
          "name": "name",
          "type": "string"
        },
        {
          "internalType": "uint256",
          "name": "duration",
          "type": "uint256"
        }
      ],
      "name": "addSubscription",
      "outputs": [],
      "stateMutability": "nonpayable",
      "type": "function"
    },
    {
      "inputs": [],
      "name": "balance",
      "outputs": [
        {
          "internalType": "uint256",
          "name": "",
          "type": "uint256"
        }
      ],
      "stateMutability": "view",
      "type": "function"
    },
    {
      "inputs": [],
      "name": "cancelSubscription",
      "outputs": [],
      "stateMutability": "nonpayable",
      "type": "function"
    },
    {
      "inputs": [
        {
          "internalType": "uint256",
          "name": "_amount",
          "type": "uint256"
        }
      ],
      "name": "deposit",
      "outputs": [],
      "stateMutability": "payable",
      "type": "function"
    },
    {
      "inputs": [],
      "name": "getBalance",
      "outputs": [
        {
          "internalType": "uint256",
          "name": "",
          "type": "uint256"
        }
      ],
      "stateMutability": "view",
      "type": "function"
    },
    {
      "inputs": [
        {
          "internalType": "uint256",
          "name": "multiplier",
          "type": "uint256"
        }
      ],
      "name": "multiplyBalance",
      "outputs": [],
      "stateMutability": "payable",
      "type": "function"
    },
    {
      "inputs": [],
      "name": "owner",
      "outputs": [
        {
          "internalType": "address payable",
          "name": "",
          "type": "address"
        }
      ],
      "stateMutability": "view",
      "type": "function"
    },
    {
      "inputs": [
        {
          "internalType": "address",
          "name": "",
          "type": "address"
        }
      ],
      "name": "subscriptions",
      "outputs": [
        {
          "internalType": "string",
          "name": "name",
          "type": "string"
        },
        {
          "internalType": "bool",
          "name": "isActive",
          "type": "bool"
        },
        {
          "internalType": "uint256",
          "name": "duration",
          "type": "uint256"
        }
      ],
      "stateMutability": "view",
      "type": "function"
    },
    {
      "inputs": [],
      "name": "viewSubscription",
      "outputs": [
        {
          "internalType": "string",
          "name": "",
          "type": "string"
        },
        {
          "internalType": "bool",
          "name": "",
          "type": "bool"
        },
        {
          "internalType": "uint256",
          "name": "",
          "type": "uint256"
        }
      ],
      "stateMutability": "view",
      "type": "function"
    },
    {
      "inputs": [
        {
          "internalType": "uint256",
          "name": "_withdrawAmount",
          "type": "uint256"
        }
      ],
      "name": "withdraw",
      "outputs": [],
      "stateMutability": "payable",
      "type": "function"
    }
  ],
  "bytecode": "0x6080604052604051620016c6380380620016c68339818101604052810190620000299190620000b7565b336000806101000a81548173ffffffffffffffffffffffffffffffffffffffff021916908373ffffffffffffffffffffffffffffffffffffffff1602179055508060018190555050620000e9565b600080fd5b6000819050919050565b62000091816200007c565b81146200009d57600080fd5b50565b600081519050620000b18162000086565b92915050565b600060208284031215620000d057620000cf62000077565b5b6000620000e084828501620000a0565b91505092915050565b6115cd80620000f96000396000f3fe6080604052600436106100915760003560e01c80638da5cb5b116100595780638da5cb5b1461013d578063b0cb719b14610168578063b69ef8a814610191578063b6b55f25146101bc578063f046395a146101d857610091565b806308bd4e8f146100965780630ac543de146100c357806312065fe0146100df57806324e9edb01461010a5780632e1a7d4d14610121575b600080fd5b3480156100a257600080fd5b506100ab610217565b6040516100ba93929190610b51565b60405180910390f35b6100dd60048036038101906100d89190610bcf565b61033c565b005b3480156100eb57600080fd5b506100f4610446565b6040516101019190610bfc565b60405180910390f35b34801561011657600080fd5b5061011f610450565b005b61013b60048036038101906101369190610bcf565b61059b565b005b34801561014957600080fd5b506101526106ec565b60405161015f9190610c58565b60405180910390f35b34801561017457600080fd5b5061018f600480360381019061018a9190610da8565b610710565b005b34801561019d57600080fd5b506101a66108c2565b6040516101b39190610bfc565b60405180910390f35b6101d660048036038101906101d19190610bcf565b6108c8565b005b3480156101e457600080fd5b506101ff60048036038101906101fa9190610e42565b6109ce565b60405161020e93929190610b51565b60405180910390f35b60606000806000600260003373ffffffffffffffffffffffffffffffffffffffff1673ffffffffffffffffffffffffffffffffffffffff16815260200190815260200160002060405180606001604052908160008201805461027890610e9e565b80601f01602080910402602001604051908101604052809291908181526020018280546102a490610e9e565b80156102f15780601f106102c6576101008083540402835291602001916102f1565b820191906000526020600020905b8154815290600101906020018083116102d457829003601f168201915b505050505081526020016001820160009054906101000a900460ff16151515158152602001600282015481525050905080600001518160200151826040015193509350935050909192565b60008054906101000a900473ffffffffffffffffffffffffffffffffffffffff1673ffffffffffffffffffffffffffffffffffffffff163373ffffffffffffffffffffffffffffffffffffffff16146103ca576040517f08c379a00000000000000000000000000000000000000000000000000000000081526004016103c190610f41565b60405180910390fd5b6000600154905081600160008282546103e39190610f90565b9250508190555081816103f69190610f90565b6001541461040757610406610fd2565b5b7ff22b871d53e000f00b45a66d27bc42ad02581dcf147ae7bca992a5ca0c69b59b8260015460405161043a929190611001565b60405180910390a15050565b6000600154905090565b6000600260003373ffffffffffffffffffffffffffffffffffffffff1673ffffffffffffffffffffffffffffffffffffffff16815260200190815260200160002090508060010160009054906101000a900460ff166104e4576040517f08c379a00000000000000000000000000000000000000000000000000000000081526004016104db90611076565b60405180910390fd5b600060018260020154036104fb5760239050610523565b600382600201540361051057603c9050610522565b600c82600201540361052157607890505b5b5b60008260010160006101000a81548160ff02191690831515021790555080600160008282546105529190611096565b925050819055507fae1c54e032c952702992514b1a210f53be60b75fc2f4aed018490d65550d376b33836000018360405161058f93929190611172565b60405180910390a15050565b60008054906101000a900473ffffffffffffffffffffffffffffffffffffffff1673ffffffffffffffffffffffffffffffffffffffff163373ffffffffffffffffffffffffffffffffffffffff1614610629576040517f08c379a000000000000000000000000000000000000000000000000000000000815260040161062090610f41565b60405180910390fd5b6000600154905081600154101561067b57600154826040517fcf479181000000000000000000000000000000000000000000000000000000008152600401610672929190611001565b60405180910390fd5b816001600082825461068d91906111b0565b9250508190555081816106a091906111b0565b600154146106b1576106b0610fd2565b5b7f5b6b431d4476a211bb7d41c20d1aab9ae2321deee0d20be3d9fc9b1093fa6e3d826040516106e09190610bfc565b60405180910390a15050565b60008054906101000a900473ffffffffffffffffffffffffffffffffffffffff1681565b6000600182036107235760239050610782565b6003820361073457603c9050610781565b600c82036107455760789050610780565b6040517f08c379a000000000000000000000000000000000000000000000000000000000815260040161077790611230565b60405180910390fd5b5b5b8060015410156107c7576040517f08c379a00000000000000000000000000000000000000000000000000000000081526004016107be906112c2565b60405180910390fd5b604051806060016040528084815260200160011515815260200183815250600260003373ffffffffffffffffffffffffffffffffffffffff1673ffffffffffffffffffffffffffffffffffffffff16815260200190815260200160002060008201518160000190816108399190611479565b5060208201518160010160006101000a81548160ff02191690831515021790555060408201518160020155905050806001600082825461087991906111b0565b925050819055507fc380792a8cc48e294ca7e02be3b29c89c0b14564b8f41acb3693d5d3479fa9c4338484846040516108b5949392919061154b565b60405180910390a1505050565b60015481565b6000600154905060008054906101000a900473ffffffffffffffffffffffffffffffffffffffff1673ffffffffffffffffffffffffffffffffffffffff163373ffffffffffffffffffffffffffffffffffffffff161461095d576040517f08c379a000000000000000000000000000000000000000000000000000000000815260040161095490610f41565b60405180910390fd5b816001600082825461096f9190611096565b9250508190555081816109829190611096565b6001541461099357610992610fd2565b5b7f4d6ce1e535dbade1c23defba91e23b8f791ce5edc0cc320257a2b364e4e38426826040516109c29190610bfc565b60405180910390a15050565b60026020528060005260406000206000915090508060000180546109f190610e9e565b80601f0160208091040260200160405190810160405280929190818152602001828054610a1d90610e9e565b8015610a6a5780601f10610a3f57610100808354040283529160200191610a6a565b820191906000526020600020905b815481529060010190602001808311610a4d57829003601f168201915b5050505050908060010160009054906101000a900460ff16908060020154905083565b600081519050919050565b600082825260208201905092915050565b60005b83811015610ac7578082015181840152602081019050610aac565b60008484015250505050565b6000601f19601f8301169050919050565b6000610aef82610a8d565b610af98185610a98565b9350610b09818560208601610aa9565b610b1281610ad3565b840191505092915050565b60008115159050919050565b610b3281610b1d565b82525050565b6000819050919050565b610b4b81610b38565b82525050565b60006060820190508181036000830152610b6b8186610ae4565b9050610b7a6020830185610b29565b610b876040830184610b42565b949350505050565b6000604051905090565b600080fd5b600080fd5b610bac81610b38565b8114610bb757600080fd5b50565b600081359050610bc981610ba3565b92915050565b600060208284031215610be557610be4610b99565b5b6000610bf384828501610bba565b91505092915050565b6000602082019050610c116000830184610b42565b92915050565b600073ffffffffffffffffffffffffffffffffffffffff82169050919050565b6000610c4282610c17565b9050919050565b610c5281610c37565b82525050565b6000602082019050610c6d6000830184610c49565b92915050565b600080fd5b600080fd5b7f4e487b7100000000000000000000000000000000000000000000000000000000600052604160045260246000fd5b610cb582610ad3565b810181811067ffffffffffffffff82111715610cd457610cd3610c7d565b5b80604052505050565b6000610ce7610b8f565b9050610cf38282610cac565b919050565b600067ffffffffffffffff821115610d1357610d12610c7d565b5b610d1c82610ad3565b9050602081019050919050565b82818337600083830152505050565b6000610d4b610d4684610cf8565b610cdd565b905082815260208101848484011115610d6757610d66610c78565b5b610d72848285610d29565b509392505050565b600082601f830112610d8f57610d8e610c73565b5b8135610d9f848260208601610d38565b91505092915050565b60008060408385031215610dbf57610dbe610b99565b5b600083013567ffffffffffffffff811115610ddd57610ddc610b9e565b5b610de985828601610d7a565b9250506020610dfa85828601610bba565b9150509250929050565b6000610e0f82610c17565b9050919050565b610e1f81610e04565b8114610e2a57600080fd5b50565b600081359050610e3c81610e16565b92915050565b600060208284031215610e5857610e57610b99565b5b6000610e6684828501610e2d565b91505092915050565b7f4e487b7100000000000000000000000000000000000000000000000000000000600052602260045260246000fd5b60006002820490506001821680610eb657607f821691505b602082108103610ec957610ec8610e6f565b5b50919050565b7f596f7520617265206e6f7420746865206f776e6572206f66207468697320616360008201527f636f756e74000000000000000000000000000000000000000000000000000000602082015250565b6000610f2b602583610a98565b9150610f3682610ecf565b604082019050919050565b60006020820190508181036000830152610f5a81610f1e565b9050919050565b7f4e487b7100000000000000000000000000000000000000000000000000000000600052601160045260246000fd5b6000610f9b82610b38565b9150610fa683610b38565b9250828202610fb481610b38565b91508282048414831517610fcb57610fca610f61565b5b5092915050565b7f4e487b7100000000000000000000000000000000000000000000000000000000600052600160045260246000fd5b60006040820190506110166000830185610b42565b6110236020830184610b42565b9392505050565b7f4e6f2061637469766520737562736372697074696f6e20746f2063616e63656c600082015250565b6000611060602083610a98565b915061106b8261102a565b602082019050919050565b6000602082019050818103600083015261108f81611053565b9050919050565b60006110a182610b38565b91506110ac83610b38565b92508282019050808211156110c4576110c3610f61565b5b92915050565b6110d381610e04565b82525050565b60008190508160005260206000209050919050565b600081546110fb81610e9e565b6111058186610a98565b94506001821660008114611120576001811461113657611169565b60ff198316865281151560200286019350611169565b61113f856110d9565b60005b8381101561116157815481890152600182019150602081019050611142565b808801955050505b50505092915050565b600060608201905061118760008301866110ca565b818103602083015261119981856110ee565b90506111a86040830184610b42565b949350505050565b60006111bb82610b38565b91506111c683610b38565b92508282039050818111156111de576111dd610f61565b5b92915050565b7f496e76616c696420737562736372697074696f6e206475726174696f6e000000600082015250565b600061121a601d83610a98565b9150611225826111e4565b602082019050919050565b600060208201905081810360008301526112498161120d565b9050919050565b7f496e73756666696369656e742062616c616e636520666f72207375627363726960008201527f7074696f6e000000000000000000000000000000000000000000000000000000602082015250565b60006112ac602583610a98565b91506112b782611250565b604082019050919050565b600060208201905081810360008301526112db8161129f565b9050919050565b60006020601f8301049050919050565b600082821b905092915050565b60006008830261132f7fffffffffffffffffffffffffffffffffffffffffffffffffffffffffffffffff826112f2565b61133986836112f2565b95508019841693508086168417925050509392505050565b6000819050919050565b600061137661137161136c84610b38565b611351565b610b38565b9050919050565b6000819050919050565b6113908361135b565b6113a461139c8261137d565b8484546112ff565b825550505050565b600090565b6113b96113ac565b6113c4818484611387565b505050565b5b818110156113e8576113dd6000826113b1565b6001810190506113ca565b5050565b601f82111561142d576113fe816110d9565b611407846112e2565b81016020851015611416578190505b61142a611422856112e2565b8301826113c9565b50505b505050565b600082821c905092915050565b600061145060001984600802611432565b1980831691505092915050565b6000611469838361143f565b9150826002028217905092915050565b61148282610a8d565b67ffffffffffffffff81111561149b5761149a610c7d565b5b6114a58254610e9e565b6114b08282856113ec565b600060209050601f8311600181146114e357600084156114d1578287015190505b6114db858261145d565b865550611543565b601f1984166114f1866110d9565b60005b82811015611519578489015182556001820191506020850194506020810190506114f4565b868310156115365784890151611532601f89168261143f565b8355505b6001600288020188555050505b505050505050565b600060808201905061156060008301876110ca565b81810360208301526115728186610ae4565b90506115816040830185610b42565b61158e6060830184610b42565b9594505050505056fea2646970667358221220cd0e770cfc730c589a6be48b2f27cf0dc7514f17719769d26a03dc5cead60bc764736f6c63430008110033",
  "linkReferences": {},
  "deployedLinkReferences": {}
}