{
  "_format": "hh-sol-artifact-1",
  "contractName": "Assessment",
  "sourceName": "contracts/Assessment.sol",
  "abi": [
    {
      "inputs": [
        {
          "internalType": "uint256",
          "name": "initBalance",
          "type": "uint256"
        }
      ],
      "stateMutability": "payable",
      "type": "constructor"
    },
    {
      "inputs": [
        {
          "internalType": "uint256",
          "name": "balance",
          "type": "uint256"
        },
        {
          "internalType": "uint256",
          "name": "withdrawAmount",
          "type": "uint256"
        }
      ],
      "name": "InsufficientBalance",
      "type": "error"
    },
    {
      "anonymous": false,
      "inputs": [
        {
          "indexed": false,
          "internalType": "uint256",
          "name": "amount",
          "type": "uint256"
        }
      ],
      "name": "Deposit",
      "type": "event"
    },
    {
      "anonymous": false,
      "inputs": [
        {
          "indexed": false,
          "internalType": "uint256",
          "name": "amount",
          "type": "uint256"
        }
      ],
      "name": "Withdraw",
      "type": "event"
    },
    {
      "anonymous": false,
      "inputs": [
        {
          "indexed": false,
          "internalType": "uint256",
          "name": "multiplier",
          "type": "uint256"
        },
        {
          "indexed": false,
          "internalType": "uint256",
          "name": "newBalance",
          "type": "uint256"
        }
      ],
      "name": "balanceMultiplied",
      "type": "event"
    },
    {
      "inputs": [],
      "name": "balance",
      "outputs": [
        {
          "internalType": "uint256",
          "name": "",
          "type": "uint256"
        }
      ],
      "stateMutability": "view",
      "type": "function"
    },
    {
      "inputs": [
        {
          "internalType": "uint256",
          "name": "_amount",
          "type": "uint256"
        }
      ],
      "name": "deposit",
      "outputs": [],
      "stateMutability": "payable",
      "type": "function"
    },
    {
      "inputs": [],
      "name": "getBalance",
      "outputs": [
        {
          "internalType": "uint256",
          "name": "",
          "type": "uint256"
        }
      ],
      "stateMutability": "view",
      "type": "function"
    },
    {
      "inputs": [
        {
          "internalType": "uint256",
          "name": "multiplier",
          "type": "uint256"
        }
      ],
      "name": "multiplyBalance",
      "outputs": [],
      "stateMutability": "payable",
      "type": "function"
    },
    {
      "inputs": [],
      "name": "owner",
      "outputs": [
        {
          "internalType": "address payable",
          "name": "",
          "type": "address"
        }
      ],
      "stateMutability": "view",
      "type": "function"
    },
    {
      "inputs": [
        {
          "internalType": "uint256",
          "name": "_withdrawAmount",
          "type": "uint256"
        }
      ],
      "name": "withdraw",
      "outputs": [],
      "stateMutability": "payable",
      "type": "function"
    }
  ],
  "bytecode": "0x60806040526040516108a53803806108a5833981810160405281019061002591906100ad565b336000806101000a81548173ffffffffffffffffffffffffffffffffffffffff021916908373ffffffffffffffffffffffffffffffffffffffff16021790555080600181905550506100da565b600080fd5b6000819050919050565b61008a81610077565b811461009557600080fd5b50565b6000815190506100a781610081565b92915050565b6000602082840312156100c3576100c2610072565b5b60006100d184828501610098565b91505092915050565b6107bc806100e96000396000f3fe6080604052600436106100555760003560e01c80630ac543de1461005a57806312065fe0146100765780632e1a7d4d146100a15780638da5cb5b146100bd578063b69ef8a8146100e8578063b6b55f2514610113575b600080fd5b610074600480360381019061006f91906104ff565b61012f565b005b34801561008257600080fd5b5061008b610239565b604051610098919061053b565b60405180910390f35b6100bb60048036038101906100b691906104ff565b610243565b005b3480156100c957600080fd5b506100d2610394565b6040516100df9190610597565b60405180910390f35b3480156100f457600080fd5b506100fd6103b8565b60405161010a919061053b565b60405180910390f35b61012d600480360381019061012891906104ff565b6103be565b005b60008054906101000a900473ffffffffffffffffffffffffffffffffffffffff1673ffffffffffffffffffffffffffffffffffffffff163373ffffffffffffffffffffffffffffffffffffffff16146101bd576040517f08c379a00000000000000000000000000000000000000000000000000000000081526004016101b490610635565b60405180910390fd5b6000600154905081600160008282546101d69190610684565b9250508190555081816101e99190610684565b600154146101fa576101f96106c6565b5b7ff22b871d53e000f00b45a66d27bc42ad02581dcf147ae7bca992a5ca0c69b59b8260015460405161022d9291906106f5565b60405180910390a15050565b6000600154905090565b60008054906101000a900473ffffffffffffffffffffffffffffffffffffffff1673ffffffffffffffffffffffffffffffffffffffff163373ffffffffffffffffffffffffffffffffffffffff16146102d1576040517f08c379a00000000000000000000000000000000000000000000000000000000081526004016102c890610635565b60405180910390fd5b6000600154905081600154101561032357600154826040517fcf47918100000000000000000000000000000000000000000000000000000000815260040161031a9291906106f5565b60405180910390fd5b8160016000828254610335919061071e565b925050819055508181610348919061071e565b60015414610359576103586106c6565b5b7f5b6b431d4476a211bb7d41c20d1aab9ae2321deee0d20be3d9fc9b1093fa6e3d82604051610388919061053b565b60405180910390a15050565b60008054906101000a900473ffffffffffffffffffffffffffffffffffffffff1681565b60015481565b6000600154905060008054906101000a900473ffffffffffffffffffffffffffffffffffffffff1673ffffffffffffffffffffffffffffffffffffffff163373ffffffffffffffffffffffffffffffffffffffff1614610453576040517f08c379a000000000000000000000000000000000000000000000000000000000815260040161044a90610635565b60405180910390fd5b81600160008282546104659190610752565b9250508190555081816104789190610752565b60015414610489576104886106c6565b5b7f4d6ce1e535dbade1c23defba91e23b8f791ce5edc0cc320257a2b364e4e38426826040516104b8919061053b565b60405180910390a15050565b600080fd5b6000819050919050565b6104dc816104c9565b81146104e757600080fd5b50565b6000813590506104f9816104d3565b92915050565b600060208284031215610515576105146104c4565b5b6000610523848285016104ea565b91505092915050565b610535816104c9565b82525050565b6000602082019050610550600083018461052c565b92915050565b600073ffffffffffffffffffffffffffffffffffffffff82169050919050565b600061058182610556565b9050919050565b61059181610576565b82525050565b60006020820190506105ac6000830184610588565b92915050565b600082825260208201905092915050565b7f596f7520617265206e6f7420746865206f776e6572206f66207468697320616360008201527f636f756e74000000000000000000000000000000000000000000000000000000602082015250565b600061061f6025836105b2565b915061062a826105c3565b604082019050919050565b6000602082019050818103600083015261064e81610612565b9050919050565b7f4e487b7100000000000000000000000000000000000000000000000000000000600052601160045260246000fd5b600061068f826104c9565b915061069a836104c9565b92508282026106a8816104c9565b915082820484148315176106bf576106be610655565b5b5092915050565b7f4e487b7100000000000000000000000000000000000000000000000000000000600052600160045260246000fd5b600060408201905061070a600083018561052c565b610717602083018461052c565b9392505050565b6000610729826104c9565b9150610734836104c9565b925082820390508181111561074c5761074b610655565b5b92915050565b600061075d826104c9565b9150610768836104c9565b92508282019050808211156107805761077f610655565b5b9291505056fea2646970667358221220ba41fcd66b9c2306fa48822b7c235949ee45a94bff1dd72ac6a18c074eba36e864736f6c63430008110033",
  "linkReferences": {},
  "deployedLinkReferences": {}
}